{
  "_format": "hh-sol-artifact-1",
  "contractName": "Web3Mint",
  "sourceName": "contracts/Web3Mint.sol",
  "abi": [
    {
      "inputs": [],
      "stateMutability": "nonpayable",
      "type": "constructor"
    },
    {
      "anonymous": false,
      "inputs": [
        {
          "indexed": true,
          "internalType": "address",
          "name": "owner",
          "type": "address"
        },
        {
          "indexed": true,
          "internalType": "address",
          "name": "approved",
          "type": "address"
        },
        {
          "indexed": true,
          "internalType": "uint256",
          "name": "tokenId",
          "type": "uint256"
        }
      ],
      "name": "Approval",
      "type": "event"
    },
    {
      "anonymous": false,
      "inputs": [
        {
          "indexed": true,
          "internalType": "address",
          "name": "owner",
          "type": "address"
        },
        {
          "indexed": true,
          "internalType": "address",
          "name": "operator",
          "type": "address"
        },
        {
          "indexed": false,
          "internalType": "bool",
          "name": "approved",
          "type": "bool"
        }
      ],
      "name": "ApprovalForAll",
      "type": "event"
    },
    {
      "anonymous": false,
      "inputs": [
        {
          "indexed": true,
          "internalType": "address",
          "name": "from",
          "type": "address"
        },
        {
          "indexed": true,
          "internalType": "address",
          "name": "to",
          "type": "address"
        },
        {
          "indexed": true,
          "internalType": "uint256",
          "name": "tokenId",
          "type": "uint256"
        }
      ],
      "name": "Transfer",
      "type": "event"
    },
    {
      "anonymous": false,
      "inputs": [
        {
          "indexed": false,
          "internalType": "address",
          "name": "sender",
          "type": "address"
        },
        {
          "indexed": false,
          "internalType": "uint256",
          "name": "tokenId",
          "type": "uint256"
        }
      ],
      "name": "mintedNft",
      "type": "event"
    },
    {
      "inputs": [
        {
          "internalType": "address",
          "name": "to",
          "type": "address"
        },
        {
          "internalType": "uint256",
          "name": "tokenId",
          "type": "uint256"
        }
      ],
      "name": "approve",
      "outputs": [],
      "stateMutability": "nonpayable",
      "type": "function"
    },
    {
      "inputs": [
        {
          "internalType": "address",
          "name": "owner",
          "type": "address"
        }
      ],
      "name": "balanceOf",
      "outputs": [
        {
          "internalType": "uint256",
          "name": "",
          "type": "uint256"
        }
      ],
      "stateMutability": "view",
      "type": "function"
    },
    {
      "inputs": [
        {
          "internalType": "uint256",
          "name": "tokenId",
          "type": "uint256"
        }
      ],
      "name": "getApproved",
      "outputs": [
        {
          "internalType": "address",
          "name": "",
          "type": "address"
        }
      ],
      "stateMutability": "view",
      "type": "function"
    },
    {
      "inputs": [],
      "name": "getTotalMint",
      "outputs": [
        {
          "internalType": "uint256",
          "name": "",
          "type": "uint256"
        }
      ],
      "stateMutability": "view",
      "type": "function"
    },
    {
      "inputs": [
        {
          "internalType": "address",
          "name": "owner",
          "type": "address"
        },
        {
          "internalType": "address",
          "name": "operator",
          "type": "address"
        }
      ],
      "name": "isApprovedForAll",
      "outputs": [
        {
          "internalType": "bool",
          "name": "",
          "type": "bool"
        }
      ],
      "stateMutability": "view",
      "type": "function"
    },
    {
      "inputs": [
        {
          "internalType": "string",
          "name": "name",
          "type": "string"
        },
        {
          "internalType": "string",
          "name": "imageURI",
          "type": "string"
        }
      ],
      "name": "mintIpfsNFT",
      "outputs": [],
      "stateMutability": "nonpayable",
      "type": "function"
    },
    {
      "inputs": [],
      "name": "name",
      "outputs": [
        {
          "internalType": "string",
          "name": "",
          "type": "string"
        }
      ],
      "stateMutability": "view",
      "type": "function"
    },
    {
      "inputs": [
        {
          "internalType": "uint256",
          "name": "tokenId",
          "type": "uint256"
        }
      ],
      "name": "ownerOf",
      "outputs": [
        {
          "internalType": "address",
          "name": "",
          "type": "address"
        }
      ],
      "stateMutability": "view",
      "type": "function"
    },
    {
      "inputs": [
        {
          "internalType": "address",
          "name": "from",
          "type": "address"
        },
        {
          "internalType": "address",
          "name": "to",
          "type": "address"
        },
        {
          "internalType": "uint256",
          "name": "tokenId",
          "type": "uint256"
        }
      ],
      "name": "safeTransferFrom",
      "outputs": [],
      "stateMutability": "nonpayable",
      "type": "function"
    },
    {
      "inputs": [
        {
          "internalType": "address",
          "name": "from",
          "type": "address"
        },
        {
          "internalType": "address",
          "name": "to",
          "type": "address"
        },
        {
          "internalType": "uint256",
          "name": "tokenId",
          "type": "uint256"
        },
        {
          "internalType": "bytes",
          "name": "data",
          "type": "bytes"
        }
      ],
      "name": "safeTransferFrom",
      "outputs": [],
      "stateMutability": "nonpayable",
      "type": "function"
    },
    {
      "inputs": [
        {
          "internalType": "address",
          "name": "operator",
          "type": "address"
        },
        {
          "internalType": "bool",
          "name": "approved",
          "type": "bool"
        }
      ],
      "name": "setApprovalForAll",
      "outputs": [],
      "stateMutability": "nonpayable",
      "type": "function"
    },
    {
      "inputs": [
        {
          "internalType": "bytes4",
          "name": "interfaceId",
          "type": "bytes4"
        }
      ],
      "name": "supportsInterface",
      "outputs": [
        {
          "internalType": "bool",
          "name": "",
          "type": "bool"
        }
      ],
      "stateMutability": "view",
      "type": "function"
    },
    {
      "inputs": [],
      "name": "symbol",
      "outputs": [
        {
          "internalType": "string",
          "name": "",
          "type": "string"
        }
      ],
      "stateMutability": "view",
      "type": "function"
    },
    {
      "inputs": [
        {
          "internalType": "uint256",
          "name": "_tokenId",
          "type": "uint256"
        }
      ],
      "name": "tokenURI",
      "outputs": [
        {
          "internalType": "string",
          "name": "",
          "type": "string"
        }
      ],
      "stateMutability": "view",
      "type": "function"
    },
    {
      "inputs": [
        {
          "internalType": "address",
          "name": "from",
          "type": "address"
        },
        {
          "internalType": "address",
          "name": "to",
          "type": "address"
        },
        {
          "internalType": "uint256",
          "name": "tokenId",
          "type": "uint256"
        }
      ],
      "name": "transferFrom",
      "outputs": [],
      "stateMutability": "nonpayable",
      "type": "function"
    }
  ],
  "bytecode": "0x60806040526032600660006101000a81548160ff021916908360ff1602179055503480156200002d57600080fd5b506040518060400160405280600381526020017f4e465400000000000000000000000000000000000000000000000000000000008152506040518060400160405280600381526020017f6e667400000000000000000000000000000000000000000000000000000000008152508160009081620000ab919062000457565b508060019081620000bd919062000457565b5050506200010b6040518060400160405280601881526020017f54686973206973206d6179204e465420636f6e747261637400000000000000008152506200011160201b62000b5c1760201c565b620005f1565b620001b181604051602401620001289190620005cd565b6040516020818303038152906040527f41304fac000000000000000000000000000000000000000000000000000000007bffffffffffffffffffffffffffffffffffffffffffffffffffffffff19166020820180517bffffffffffffffffffffffffffffffffffffffffffffffffffffffff8381831617835250505050620001b460201b60201c565b50565b60008151905060006a636f6e736f6c652e6c6f679050602083016000808483855afa5050505050565b600081519050919050565b7f4e487b7100000000000000000000000000000000000000000000000000000000600052604160045260246000fd5b7f4e487b7100000000000000000000000000000000000000000000000000000000600052602260045260246000fd5b600060028204905060018216806200025f57607f821691505b60208210810362000275576200027462000217565b5b50919050565b60008190508160005260206000209050919050565b60006020601f8301049050919050565b600082821b905092915050565b600060088302620002df7fffffffffffffffffffffffffffffffffffffffffffffffffffffffffffffffff82620002a0565b620002eb8683620002a0565b95508019841693508086168417925050509392505050565b6000819050919050565b6000819050919050565b600062000338620003326200032c8462000303565b6200030d565b62000303565b9050919050565b6000819050919050565b620003548362000317565b6200036c62000363826200033f565b848454620002ad565b825550505050565b600090565b6200038362000374565b6200039081848462000349565b505050565b5b81811015620003b857620003ac60008262000379565b60018101905062000396565b5050565b601f8211156200040757620003d1816200027b565b620003dc8462000290565b81016020851015620003ec578190505b62000404620003fb8562000290565b83018262000395565b50505b505050565b600082821c905092915050565b60006200042c600019846008026200040c565b1980831691505092915050565b600062000447838362000419565b9150826002028217905092915050565b6200046282620001dd565b67ffffffffffffffff8111156200047e576200047d620001e8565b5b6200048a825462000246565b62000497828285620003bc565b600060209050601f831160018114620004cf5760008415620004ba578287015190505b620004c6858262000439565b86555062000536565b601f198416620004df866200027b565b60005b828110156200050957848901518255600182019150602085019450602081019050620004e2565b8683101562000529578489015162000525601f89168262000419565b8355505b6001600288020188555050505b505050505050565b600082825260208201905092915050565b60005b838110156200056f57808201518184015260208101905062000552565b60008484015250505050565b6000601f19601f8301169050919050565b60006200059982620001dd565b620005a581856200053e565b9350620005b78185602086016200054f565b620005c2816200057b565b840191505092915050565b60006020820190508181036000830152620005e981846200058c565b905092915050565b61334780620006016000396000f3fe608060405234801561001057600080fd5b50600436106100f55760003560e01c806370a0823111610097578063c87b56dd11610066578063c87b56dd14610282578063d795cdb7146102b2578063e985e9c5146102d0578063eb00195d14610300576100f5565b806370a08231146101fc57806395d89b411461022c578063a22cb4651461024a578063b88d4fde14610266576100f5565b8063095ea7b3116100d3578063095ea7b31461017857806323b872dd1461019457806342842e0e146101b05780636352211e146101cc576100f5565b806301ffc9a7146100fa57806306fdde031461012a578063081812fc14610148575b600080fd5b610114600480360381019061010f9190611dbb565b61031c565b6040516101219190611e03565b60405180910390f35b6101326103fe565b60405161013f9190611eae565b60405180910390f35b610162600480360381019061015d9190611f06565b610490565b60405161016f9190611f74565b60405180910390f35b610192600480360381019061018d9190611fbb565b6104d6565b005b6101ae60048036038101906101a99190611ffb565b6105ed565b005b6101ca60048036038101906101c59190611ffb565b61064d565b005b6101e660048036038101906101e19190611f06565b61066d565b6040516101f39190611f74565b60405180910390f35b6102166004803603810190610211919061204e565b6106f3565b604051610223919061208a565b60405180910390f35b6102346107aa565b6040516102419190611eae565b60405180910390f35b610264600480360381019061025f91906120d1565b61083c565b005b610280600480360381019061027b9190612246565b610852565b005b61029c60048036038101906102979190611f06565b6108b4565b6040516102a99190611eae565b60405180910390f35b6102ba610964565b6040516102c7919061208a565b60405180910390f35b6102ea60048036038101906102e591906122c9565b61097a565b6040516102f79190611e03565b60405180910390f35b61031a600480360381019061031591906123aa565b610a0e565b005b60007f80ac58cd000000000000000000000000000000000000000000000000000000007bffffffffffffffffffffffffffffffffffffffffffffffffffffffff1916827bffffffffffffffffffffffffffffffffffffffffffffffffffffffff191614806103e757507f5b5e139f000000000000000000000000000000000000000000000000000000007bffffffffffffffffffffffffffffffffffffffffffffffffffffffff1916827bffffffffffffffffffffffffffffffffffffffffffffffffffffffff1916145b806103f757506103f682610bf5565b5b9050919050565b60606000805461040d90612451565b80601f016020809104026020016040519081016040528092919081815260200182805461043990612451565b80156104865780601f1061045b57610100808354040283529160200191610486565b820191906000526020600020905b81548152906001019060200180831161046957829003601f168201915b5050505050905090565b600061049b82610c5f565b6004600083815260200190815260200160002060009054906101000a900473ffffffffffffffffffffffffffffffffffffffff169050919050565b60006104e18261066d565b90508073ffffffffffffffffffffffffffffffffffffffff168373ffffffffffffffffffffffffffffffffffffffff1603610551576040517f08c379a0000000000000000000000000000000000000000000000000000000008152600401610548906124f4565b60405180910390fd5b8073ffffffffffffffffffffffffffffffffffffffff16610570610caa565b73ffffffffffffffffffffffffffffffffffffffff16148061059f575061059e81610599610caa565b61097a565b5b6105de576040517f08c379a00000000000000000000000000000000000000000000000000000000081526004016105d590612586565b60405180910390fd5b6105e88383610cb2565b505050565b6105fe6105f8610caa565b82610d6b565b61063d576040517f08c379a000000000000000000000000000000000000000000000000000000000815260040161063490612618565b60405180910390fd5b610648838383610e00565b505050565b61066883838360405180602001604052806000815250610852565b505050565b600080610679836110f9565b9050600073ffffffffffffffffffffffffffffffffffffffff168173ffffffffffffffffffffffffffffffffffffffff16036106ea576040517f08c379a00000000000000000000000000000000000000000000000000000000081526004016106e190612684565b60405180910390fd5b80915050919050565b60008073ffffffffffffffffffffffffffffffffffffffff168273ffffffffffffffffffffffffffffffffffffffff1603610763576040517f08c379a000000000000000000000000000000000000000000000000000000000815260040161075a90612716565b60405180910390fd5b600360008373ffffffffffffffffffffffffffffffffffffffff1673ffffffffffffffffffffffffffffffffffffffff168152602001908152602001600020549050919050565b6060600180546107b990612451565b80601f01602080910402602001604051908101604052809291908181526020018280546107e590612451565b80156108325780601f1061080757610100808354040283529160200191610832565b820191906000526020600020905b81548152906001019060200180831161081557829003601f168201915b5050505050905090565b61084e610847610caa565b8383611136565b5050565b61086361085d610caa565b83610d6b565b6108a2576040517f08c379a000000000000000000000000000000000000000000000000000000000815260040161089990612618565b60405180910390fd5b6108ae848484846112a2565b50505050565b60606000610934600784815481106108cf576108ce612736565b5b90600052602060002090600202016000016108e9856112fe565b600786815481106108fd576108fc612736565b5b90600052602060002090600202016001016040516020016109209392919061298f565b6040516020818303038152906040526113cc565b90506000816040516020016109499190612a38565b60405160208183030381529060405290508092505050919050565b6000806109716008611563565b90508091505090565b6000600560008473ffffffffffffffffffffffffffffffffffffffff1673ffffffffffffffffffffffffffffffffffffffff16815260200190815260200160002060008373ffffffffffffffffffffffffffffffffffffffff1673ffffffffffffffffffffffffffffffffffffffff16815260200190815260200160002060009054906101000a900460ff16905092915050565b6000610a1a6008611563565b9050600660009054906101000a900460ff1660ff168110610a70576040517f08c379a0000000000000000000000000000000000000000000000000000000008152600401610a6790612aa6565b60405180910390fd5b610a7a3382611571565b600760405180604001604052808581526020018481525090806001815401808255809150506001900390600052602060002090600202016000909190919091506000820151816000019081610acf9190612c5d565b506020820151816001019081610ae59190612c5d565b505050610b0b6040518060600160405280602581526020016132ed60259139823361158f565b610b15600861162e565b7fff16cc7280d4c70dab75220a16409785f7278c74b420603a41ac7d5ca2e49dd933610b416008611563565b604051610b4f929190612d2f565b60405180910390a1505050565b610bf281604051602401610b709190611eae565b6040516020818303038152906040527f41304fac000000000000000000000000000000000000000000000000000000007bffffffffffffffffffffffffffffffffffffffffffffffffffffffff19166020820180517bffffffffffffffffffffffffffffffffffffffffffffffffffffffff8381831617835250505050611644565b50565b60007f01ffc9a7000000000000000000000000000000000000000000000000000000007bffffffffffffffffffffffffffffffffffffffffffffffffffffffff1916827bffffffffffffffffffffffffffffffffffffffffffffffffffffffff1916149050919050565b610c688161166d565b610ca7576040517f08c379a0000000000000000000000000000000000000000000000000000000008152600401610c9e90612684565b60405180910390fd5b50565b600033905090565b816004600083815260200190815260200160002060006101000a81548173ffffffffffffffffffffffffffffffffffffffff021916908373ffffffffffffffffffffffffffffffffffffffff160217905550808273ffffffffffffffffffffffffffffffffffffffff16610d258361066d565b73ffffffffffffffffffffffffffffffffffffffff167f8c5be1e5ebec7d5bd14f71427d1e84f3dd0314c0f7b2291e5b200ac8c7c3b92560405160405180910390a45050565b600080610d778361066d565b90508073ffffffffffffffffffffffffffffffffffffffff168473ffffffffffffffffffffffffffffffffffffffff161480610db95750610db8818561097a565b5b80610df757508373ffffffffffffffffffffffffffffffffffffffff16610ddf84610490565b73ffffffffffffffffffffffffffffffffffffffff16145b91505092915050565b8273ffffffffffffffffffffffffffffffffffffffff16610e208261066d565b73ffffffffffffffffffffffffffffffffffffffff1614610e76576040517f08c379a0000000000000000000000000000000000000000000000000000000008152600401610e6d90612dca565b60405180910390fd5b600073ffffffffffffffffffffffffffffffffffffffff168273ffffffffffffffffffffffffffffffffffffffff1603610ee5576040517f08c379a0000000000000000000000000000000000000000000000000000000008152600401610edc90612e5c565b60405180910390fd5b610ef283838360016116ae565b8273ffffffffffffffffffffffffffffffffffffffff16610f128261066d565b73ffffffffffffffffffffffffffffffffffffffff1614610f68576040517f08c379a0000000000000000000000000000000000000000000000000000000008152600401610f5f90612dca565b60405180910390fd5b6004600082815260200190815260200160002060006101000a81549073ffffffffffffffffffffffffffffffffffffffff02191690556001600360008573ffffffffffffffffffffffffffffffffffffffff1673ffffffffffffffffffffffffffffffffffffffff168152602001908152602001600020600082825403925050819055506001600360008473ffffffffffffffffffffffffffffffffffffffff1673ffffffffffffffffffffffffffffffffffffffff16815260200190815260200160002060008282540192505081905550816002600083815260200190815260200160002060006101000a81548173ffffffffffffffffffffffffffffffffffffffff021916908373ffffffffffffffffffffffffffffffffffffffff160217905550808273ffffffffffffffffffffffffffffffffffffffff168473ffffffffffffffffffffffffffffffffffffffff167fddf252ad1be2c89b69c2b068fc378daa952ba7f163c4a11628f55a4df523b3ef60405160405180910390a46110f483838360016117d4565b505050565b60006002600083815260200190815260200160002060009054906101000a900473ffffffffffffffffffffffffffffffffffffffff169050919050565b8173ffffffffffffffffffffffffffffffffffffffff168373ffffffffffffffffffffffffffffffffffffffff16036111a4576040517f08c379a000000000000000000000000000000000000000000000000000000000815260040161119b90612ec8565b60405180910390fd5b80600560008573ffffffffffffffffffffffffffffffffffffffff1673ffffffffffffffffffffffffffffffffffffffff16815260200190815260200160002060008473ffffffffffffffffffffffffffffffffffffffff1673ffffffffffffffffffffffffffffffffffffffff16815260200190815260200160002060006101000a81548160ff0219169083151502179055508173ffffffffffffffffffffffffffffffffffffffff168373ffffffffffffffffffffffffffffffffffffffff167f17307eab39ab6107e8899845ad3d59bd9653f200f220920489ca2b5937696c31836040516112959190611e03565b60405180910390a3505050565b6112ad848484610e00565b6112b9848484846117da565b6112f8576040517f08c379a00000000000000000000000000000000000000000000000000000000081526004016112ef90612f5a565b60405180910390fd5b50505050565b60606000600161130d84611961565b01905060008167ffffffffffffffff81111561132c5761132b61211b565b5b6040519080825280601f01601f19166020018201604052801561135e5781602001600182028036833780820191505090505b509050600082602001820190505b6001156113c1578080600190039150507f3031323334353637383961626364656600000000000000000000000000000000600a86061a8153600a85816113b5576113b4612f7a565b5b0494506000850361136c575b819350505050919050565b6060600082519050600081036113f4576040518060200160405280600081525091505061155e565b600060036002836114059190612fd8565b61140f919061300c565b600461141b919061303d565b9050600060208261142c9190612fd8565b67ffffffffffffffff8111156114455761144461211b565b5b6040519080825280601f01601f1916602001820160405280156114775781602001600182028036833780820191505090505b50905060006040518060600160405280604081526020016132ad604091399050600181016020830160005b8681101561151b5760038101905062ffffff818a015116603f8160121c168401518060081b905060ff603f83600c1c1686015116810190508060081b905060ff603f8360061c1686015116810190508060081b905060ff603f831686015116810190508060e01b905080845260048401935050506114a2565b506003860660018114611535576002811461154557611550565b613d3d60f01b6002830352611550565b603d60f81b60018303525b508484525050819450505050505b919050565b600081600001549050919050565b61158b828260405180602001604052806000815250611ab4565b5050565b6116298383836040516024016115a79392919061307f565b6040516020818303038152906040527f1c7ec448000000000000000000000000000000000000000000000000000000007bffffffffffffffffffffffffffffffffffffffffffffffffffffffff19166020820180517bffffffffffffffffffffffffffffffffffffffffffffffffffffffff8381831617835250505050611644565b505050565b6001816000016000828254019250508190555050565b60008151905060006a636f6e736f6c652e6c6f679050602083016000808483855afa5050505050565b60008073ffffffffffffffffffffffffffffffffffffffff1661168f836110f9565b73ffffffffffffffffffffffffffffffffffffffff1614159050919050565b60018111156117ce57600073ffffffffffffffffffffffffffffffffffffffff168473ffffffffffffffffffffffffffffffffffffffff16146117425780600360008673ffffffffffffffffffffffffffffffffffffffff1673ffffffffffffffffffffffffffffffffffffffff168152602001908152602001600020600082825461173a91906130bd565b925050819055505b600073ffffffffffffffffffffffffffffffffffffffff168373ffffffffffffffffffffffffffffffffffffffff16146117cd5780600360008573ffffffffffffffffffffffffffffffffffffffff1673ffffffffffffffffffffffffffffffffffffffff16815260200190815260200160002060008282546117c59190612fd8565b925050819055505b5b50505050565b50505050565b60006117fb8473ffffffffffffffffffffffffffffffffffffffff16611b0f565b15611954578373ffffffffffffffffffffffffffffffffffffffff1663150b7a02611824610caa565b8786866040518563ffffffff1660e01b81526004016118469493929190613146565b6020604051808303816000875af192505050801561188257506040513d601f19601f8201168201806040525081019061187f91906131a7565b60015b611904573d80600081146118b2576040519150601f19603f3d011682016040523d82523d6000602084013e6118b7565b606091505b5060008151036118fc576040517f08c379a00000000000000000000000000000000000000000000000000000000081526004016118f390612f5a565b60405180910390fd5b805181602001fd5b63150b7a0260e01b7bffffffffffffffffffffffffffffffffffffffffffffffffffffffff1916817bffffffffffffffffffffffffffffffffffffffffffffffffffffffff191614915050611959565b600190505b949350505050565b600080600090507a184f03e93ff9f4daa797ed6e38ed64bf6a1f01000000000000000083106119bf577a184f03e93ff9f4daa797ed6e38ed64bf6a1f01000000000000000083816119b5576119b4612f7a565b5b0492506040810190505b6d04ee2d6d415b85acef810000000083106119fc576d04ee2d6d415b85acef810000000083816119f2576119f1612f7a565b5b0492506020810190505b662386f26fc100008310611a2b57662386f26fc100008381611a2157611a20612f7a565b5b0492506010810190505b6305f5e1008310611a54576305f5e1008381611a4a57611a49612f7a565b5b0492506008810190505b6127108310611a79576127108381611a6f57611a6e612f7a565b5b0492506004810190505b60648310611a9c5760648381611a9257611a91612f7a565b5b0492506002810190505b600a8310611aab576001810190505b80915050919050565b611abe8383611b32565b611acb60008484846117da565b611b0a576040517f08c379a0000000000000000000000000000000000000000000000000000000008152600401611b0190612f5a565b60405180910390fd5b505050565b6000808273ffffffffffffffffffffffffffffffffffffffff163b119050919050565b600073ffffffffffffffffffffffffffffffffffffffff168273ffffffffffffffffffffffffffffffffffffffff1603611ba1576040517f08c379a0000000000000000000000000000000000000000000000000000000008152600401611b9890613220565b60405180910390fd5b611baa8161166d565b15611bea576040517f08c379a0000000000000000000000000000000000000000000000000000000008152600401611be19061328c565b60405180910390fd5b611bf86000838360016116ae565b611c018161166d565b15611c41576040517f08c379a0000000000000000000000000000000000000000000000000000000008152600401611c389061328c565b60405180910390fd5b6001600360008473ffffffffffffffffffffffffffffffffffffffff1673ffffffffffffffffffffffffffffffffffffffff16815260200190815260200160002060008282540192505081905550816002600083815260200190815260200160002060006101000a81548173ffffffffffffffffffffffffffffffffffffffff021916908373ffffffffffffffffffffffffffffffffffffffff160217905550808273ffffffffffffffffffffffffffffffffffffffff16600073ffffffffffffffffffffffffffffffffffffffff167fddf252ad1be2c89b69c2b068fc378daa952ba7f163c4a11628f55a4df523b3ef60405160405180910390a4611d4b6000838360016117d4565b5050565b6000604051905090565b600080fd5b600080fd5b60007fffffffff0000000000000000000000000000000000000000000000000000000082169050919050565b611d9881611d63565b8114611da357600080fd5b50565b600081359050611db581611d8f565b92915050565b600060208284031215611dd157611dd0611d59565b5b6000611ddf84828501611da6565b91505092915050565b60008115159050919050565b611dfd81611de8565b82525050565b6000602082019050611e186000830184611df4565b92915050565b600081519050919050565b600082825260208201905092915050565b60005b83811015611e58578082015181840152602081019050611e3d565b60008484015250505050565b6000601f19601f8301169050919050565b6000611e8082611e1e565b611e8a8185611e29565b9350611e9a818560208601611e3a565b611ea381611e64565b840191505092915050565b60006020820190508181036000830152611ec88184611e75565b905092915050565b6000819050919050565b611ee381611ed0565b8114611eee57600080fd5b50565b600081359050611f0081611eda565b92915050565b600060208284031215611f1c57611f1b611d59565b5b6000611f2a84828501611ef1565b91505092915050565b600073ffffffffffffffffffffffffffffffffffffffff82169050919050565b6000611f5e82611f33565b9050919050565b611f6e81611f53565b82525050565b6000602082019050611f896000830184611f65565b92915050565b611f9881611f53565b8114611fa357600080fd5b50565b600081359050611fb581611f8f565b92915050565b60008060408385031215611fd257611fd1611d59565b5b6000611fe085828601611fa6565b9250506020611ff185828601611ef1565b9150509250929050565b60008060006060848603121561201457612013611d59565b5b600061202286828701611fa6565b935050602061203386828701611fa6565b925050604061204486828701611ef1565b9150509250925092565b60006020828403121561206457612063611d59565b5b600061207284828501611fa6565b91505092915050565b61208481611ed0565b82525050565b600060208201905061209f600083018461207b565b92915050565b6120ae81611de8565b81146120b957600080fd5b50565b6000813590506120cb816120a5565b92915050565b600080604083850312156120e8576120e7611d59565b5b60006120f685828601611fa6565b9250506020612107858286016120bc565b9150509250929050565b600080fd5b600080fd5b7f4e487b7100000000000000000000000000000000000000000000000000000000600052604160045260246000fd5b61215382611e64565b810181811067ffffffffffffffff821117156121725761217161211b565b5b80604052505050565b6000612185611d4f565b9050612191828261214a565b919050565b600067ffffffffffffffff8211156121b1576121b061211b565b5b6121ba82611e64565b9050602081019050919050565b82818337600083830152505050565b60006121e96121e484612196565b61217b565b90508281526020810184848401111561220557612204612116565b5b6122108482856121c7565b509392505050565b600082601f83011261222d5761222c612111565b5b813561223d8482602086016121d6565b91505092915050565b600080600080608085870312156122605761225f611d59565b5b600061226e87828801611fa6565b945050602061227f87828801611fa6565b935050604061229087828801611ef1565b925050606085013567ffffffffffffffff8111156122b1576122b0611d5e565b5b6122bd87828801612218565b91505092959194509250565b600080604083850312156122e0576122df611d59565b5b60006122ee85828601611fa6565b92505060206122ff85828601611fa6565b9150509250929050565b600067ffffffffffffffff8211156123245761232361211b565b5b61232d82611e64565b9050602081019050919050565b600061234d61234884612309565b61217b565b90508281526020810184848401111561236957612368612116565b5b6123748482856121c7565b509392505050565b600082601f83011261239157612390612111565b5b81356123a184826020860161233a565b91505092915050565b600080604083850312156123c1576123c0611d59565b5b600083013567ffffffffffffffff8111156123df576123de611d5e565b5b6123eb8582860161237c565b925050602083013567ffffffffffffffff81111561240c5761240b611d5e565b5b6124188582860161237c565b9150509250929050565b7f4e487b7100000000000000000000000000000000000000000000000000000000600052602260045260246000fd5b6000600282049050600182168061246957607f821691505b60208210810361247c5761247b612422565b5b50919050565b7f4552433732313a20617070726f76616c20746f2063757272656e74206f776e6560008201527f7200000000000000000000000000000000000000000000000000000000000000602082015250565b60006124de602183611e29565b91506124e982612482565b604082019050919050565b6000602082019050818103600083015261250d816124d1565b9050919050565b7f4552433732313a20617070726f76652063616c6c6572206973206e6f7420746f60008201527f6b656e206f776e6572206f7220617070726f76656420666f7220616c6c000000602082015250565b6000612570603d83611e29565b915061257b82612514565b604082019050919050565b6000602082019050818103600083015261259f81612563565b9050919050565b7f4552433732313a2063616c6c6572206973206e6f7420746f6b656e206f776e6560008201527f72206f7220617070726f76656400000000000000000000000000000000000000602082015250565b6000612602602d83611e29565b915061260d826125a6565b604082019050919050565b60006020820190508181036000830152612631816125f5565b9050919050565b7f4552433732313a20696e76616c696420746f6b656e2049440000000000000000600082015250565b600061266e601883611e29565b915061267982612638565b602082019050919050565b6000602082019050818103600083015261269d81612661565b9050919050565b7f4552433732313a2061646472657373207a65726f206973206e6f74206120766160008201527f6c6964206f776e65720000000000000000000000000000000000000000000000602082015250565b6000612700602983611e29565b915061270b826126a4565b604082019050919050565b6000602082019050818103600083015261272f816126f3565b9050919050565b7f4e487b7100000000000000000000000000000000000000000000000000000000600052603260045260246000fd5b600081905092915050565b7f7b226e616d65223a202200000000000000000000000000000000000000000000600082015250565b60006127a6600a83612765565b91506127b182612770565b600a82019050919050565b60008190508160005260206000209050919050565b600081546127de81612451565b6127e88186612765565b9450600182166000811461280357600181146128185761284b565b60ff198316865281151582028601935061284b565b612821856127bc565b60005b8381101561284357815481890152600182019150602081019050612824565b838801955050505b50505092915050565b7f202d2d204e465420233a20000000000000000000000000000000000000000000600082015250565b600061288a600b83612765565b915061289582612854565b600b82019050919050565b60006128ab82611e1e565b6128b58185612765565b93506128c5818560208601611e3a565b80840191505092915050565b7f222c20226465736372697074696f6e223a2022416e2065706963204e4654222c60008201527f2022696d616765223a2022697066733a2f2f0000000000000000000000000000602082015250565b600061292d603283612765565b9150612938826128d1565b603282019050919050565b7f227d000000000000000000000000000000000000000000000000000000000000600082015250565b6000612979600283612765565b915061298482612943565b600282019050919050565b600061299a82612799565b91506129a682866127d1565b91506129b18261287d565b91506129bd82856128a0565b91506129c882612920565b91506129d482846127d1565b91506129df8261296c565b9150819050949350505050565b7f646174613a6170706c69636174696f6e2f6a736f6e3b6261736536342c000000600082015250565b6000612a22601d83612765565b9150612a2d826129ec565b601d82019050919050565b6000612a4382612a15565b9150612a4f82846128a0565b915081905092915050565b7f72656163686564206d6974696e67206c696d6974000000000000000000000000600082015250565b6000612a90601483611e29565b9150612a9b82612a5a565b602082019050919050565b60006020820190508181036000830152612abf81612a83565b9050919050565b60006020601f8301049050919050565b600082821b905092915050565b600060088302612b137fffffffffffffffffffffffffffffffffffffffffffffffffffffffffffffffff82612ad6565b612b1d8683612ad6565b95508019841693508086168417925050509392505050565b6000819050919050565b6000612b5a612b55612b5084611ed0565b612b35565b611ed0565b9050919050565b6000819050919050565b612b7483612b3f565b612b88612b8082612b61565b848454612ae3565b825550505050565b600090565b612b9d612b90565b612ba8818484612b6b565b505050565b5b81811015612bcc57612bc1600082612b95565b600181019050612bae565b5050565b601f821115612c1157612be2816127bc565b612beb84612ac6565b81016020851015612bfa578190505b612c0e612c0685612ac6565b830182612bad565b50505b505050565b600082821c905092915050565b6000612c3460001984600802612c16565b1980831691505092915050565b6000612c4d8383612c23565b9150826002028217905092915050565b612c6682611e1e565b67ffffffffffffffff811115612c7f57612c7e61211b565b5b612c898254612451565b612c94828285612bd0565b600060209050601f831160018114612cc75760008415612cb5578287015190505b612cbf8582612c41565b865550612d27565b601f198416612cd5866127bc565b60005b82811015612cfd57848901518255600182019150602085019450602081019050612cd8565b86831015612d1a5784890151612d16601f891682612c23565b8355505b6001600288020188555050505b505050505050565b6000604082019050612d446000830185611f65565b612d51602083018461207b565b9392505050565b7f4552433732313a207472616e736665722066726f6d20696e636f72726563742060008201527f6f776e6572000000000000000000000000000000000000000000000000000000602082015250565b6000612db4602583611e29565b9150612dbf82612d58565b604082019050919050565b60006020820190508181036000830152612de381612da7565b9050919050565b7f4552433732313a207472616e7366657220746f20746865207a65726f2061646460008201527f7265737300000000000000000000000000000000000000000000000000000000602082015250565b6000612e46602483611e29565b9150612e5182612dea565b604082019050919050565b60006020820190508181036000830152612e7581612e39565b9050919050565b7f4552433732313a20617070726f766520746f2063616c6c657200000000000000600082015250565b6000612eb2601983611e29565b9150612ebd82612e7c565b602082019050919050565b60006020820190508181036000830152612ee181612ea5565b9050919050565b7f4552433732313a207472616e7366657220746f206e6f6e20455243373231526560008201527f63656976657220696d706c656d656e7465720000000000000000000000000000602082015250565b6000612f44603283611e29565b9150612f4f82612ee8565b604082019050919050565b60006020820190508181036000830152612f7381612f37565b9050919050565b7f4e487b7100000000000000000000000000000000000000000000000000000000600052601260045260246000fd5b7f4e487b7100000000000000000000000000000000000000000000000000000000600052601160045260246000fd5b6000612fe382611ed0565b9150612fee83611ed0565b925082820190508082111561300657613005612fa9565b5b92915050565b600061301782611ed0565b915061302283611ed0565b92508261303257613031612f7a565b5b828204905092915050565b600061304882611ed0565b915061305383611ed0565b925082820261306181611ed0565b9150828204841483151761307857613077612fa9565b5b5092915050565b600060608201905081810360008301526130998186611e75565b90506130a8602083018561207b565b6130b56040830184611f65565b949350505050565b60006130c882611ed0565b91506130d383611ed0565b92508282039050818111156130eb576130ea612fa9565b5b92915050565b600081519050919050565b600082825260208201905092915050565b6000613118826130f1565b61312281856130fc565b9350613132818560208601611e3a565b61313b81611e64565b840191505092915050565b600060808201905061315b6000830187611f65565b6131686020830186611f65565b613175604083018561207b565b8181036060830152613187818461310d565b905095945050505050565b6000815190506131a181611d8f565b92915050565b6000602082840312156131bd576131bc611d59565b5b60006131cb84828501613192565b91505092915050565b7f4552433732313a206d696e7420746f20746865207a65726f2061646472657373600082015250565b600061320a602083611e29565b9150613215826131d4565b602082019050919050565b60006020820190508181036000830152613239816131fd565b9050919050565b7f4552433732313a20746f6b656e20616c7265616479206d696e74656400000000600082015250565b6000613276601c83611e29565b915061328182613240565b602082019050919050565b600060208201905081810360008301526132a581613269565b905091905056fe4142434445464748494a4b4c4d4e4f505152535455565758595a6162636465666768696a6b6c6d6e6f707172737475767778797a303132333435363738392b2f416e204e4654202f7720494420257320686173206265656e206d696e74656420746f202573a2646970667358221220c6d18fd4829ebbbb3d44f700fd1dad279a5da4075ff2896cceb22513170d699c64736f6c63430008110033",
  "linkReferences": {},
  "deployedLinkReferences": {}
}